{
  "contractName": "OrganDonation",
  "abi": [
    {
      "inputs": [],
      "stateMutability": "nonpayable",
      "type": "constructor"
    },
    {
      "anonymous": false,
      "inputs": [
        {
          "indexed": true,
          "internalType": "address",
          "name": "donor",
          "type": "address"
        },
        {
          "indexed": false,
          "internalType": "string",
          "name": "name",
          "type": "string"
        },
        {
          "indexed": false,
          "internalType": "string",
          "name": "organType",
          "type": "string"
        }
      ],
      "name": "DonorRegistered",
      "type": "event"
    },
    {
      "anonymous": false,
      "inputs": [
        {
          "indexed": true,
          "internalType": "address",
          "name": "hospital",
          "type": "address"
        },
        {
          "indexed": false,
          "internalType": "string",
          "name": "name",
          "type": "string"
        }
      ],
      "name": "HospitalRegistered",
      "type": "event"
    },
    {
      "anonymous": false,
      "inputs": [
        {
          "indexed": true,
          "internalType": "address",
          "name": "donor",
          "type": "address"
        },
        {
          "indexed": true,
          "internalType": "address",
          "name": "recipient",
          "type": "address"
        },
        {
          "indexed": false,
          "internalType": "string",
          "name": "organType",
          "type": "string"
        }
      ],
      "name": "OrganMatched",
      "type": "event"
    },
    {
      "anonymous": false,
      "inputs": [
        {
          "indexed": true,
          "internalType": "address",
          "name": "recipient",
          "type": "address"
        },
        {
          "indexed": false,
          "internalType": "string",
          "name": "name",
          "type": "string"
        },
        {
          "indexed": false,
          "internalType": "string",
          "name": "neededOrgan",
          "type": "string"
        }
      ],
      "name": "RecipientRegistered",
      "type": "event"
    },
    {
      "inputs": [
        {
          "internalType": "uint256",
          "name": "",
          "type": "uint256"
        }
      ],
      "name": "donorList",
      "outputs": [
        {
          "internalType": "address",
          "name": "",
          "type": "address"
        }
      ],
      "stateMutability": "view",
      "type": "function",
      "constant": true
    },
    {
      "inputs": [
        {
          "internalType": "address",
          "name": "",
          "type": "address"
        }
      ],
      "name": "donors",
      "outputs": [
        {
          "internalType": "address",
          "name": "donorAddress",
          "type": "address"
        },
        {
          "internalType": "string",
          "name": "name",
          "type": "string"
        },
        {
          "internalType": "string",
          "name": "bloodGroup",
          "type": "string"
        },
        {
          "internalType": "uint256",
          "name": "age",
          "type": "uint256"
        },
        {
          "internalType": "bool",
          "name": "isRegistered",
          "type": "bool"
        },
        {
          "internalType": "string",
          "name": "organType",
          "type": "string"
        },
        {
          "internalType": "string",
          "name": "medicalHistory",
          "type": "string"
        },
        {
          "internalType": "bool",
          "name": "isAvailable",
          "type": "bool"
        }
      ],
      "stateMutability": "view",
      "type": "function",
      "constant": true
    },
    {
      "inputs": [
        {
          "internalType": "address",
          "name": "",
          "type": "address"
        }
      ],
      "name": "hospitals",
      "outputs": [
        {
          "internalType": "address",
          "name": "hospitalAddress",
          "type": "address"
        },
        {
          "internalType": "string",
          "name": "name",
          "type": "string"
        },
        {
          "internalType": "bool",
          "name": "isVerified",
          "type": "bool"
        }
      ],
      "stateMutability": "view",
      "type": "function",
      "constant": true
    },
    {
      "inputs": [],
      "name": "owner",
      "outputs": [
        {
          "internalType": "address",
          "name": "",
          "type": "address"
        }
      ],
      "stateMutability": "view",
      "type": "function",
      "constant": true
    },
    {
      "inputs": [
        {
          "internalType": "uint256",
          "name": "",
          "type": "uint256"
        }
      ],
      "name": "recipientList",
      "outputs": [
        {
          "internalType": "address",
          "name": "",
          "type": "address"
        }
      ],
      "stateMutability": "view",
      "type": "function",
      "constant": true
    },
    {
      "inputs": [
        {
          "internalType": "address",
          "name": "",
          "type": "address"
        }
      ],
      "name": "recipients",
      "outputs": [
        {
          "internalType": "address",
          "name": "recipientAddress",
          "type": "address"
        },
        {
          "internalType": "string",
          "name": "name",
          "type": "string"
        },
        {
          "internalType": "string",
          "name": "bloodGroup",
          "type": "string"
        },
        {
          "internalType": "uint256",
          "name": "age",
          "type": "uint256"
        },
        {
          "internalType": "bool",
          "name": "isRegistered",
          "type": "bool"
        },
        {
          "internalType": "string",
          "name": "neededOrgan",
          "type": "string"
        },
        {
          "internalType": "string",
          "name": "medicalHistory",
          "type": "string"
        },
        {
          "internalType": "bool",
          "name": "isUrgent",
          "type": "bool"
        }
      ],
      "stateMutability": "view",
      "type": "function",
      "constant": true
    },
    {
      "inputs": [
        {
          "internalType": "address",
          "name": "_hospitalAddress",
          "type": "address"
        },
        {
          "internalType": "string",
          "name": "_name",
          "type": "string"
        }
      ],
      "name": "registerHospital",
      "outputs": [],
      "stateMutability": "nonpayable",
      "type": "function"
    },
    {
      "inputs": [
        {
          "internalType": "string",
          "name": "_name",
          "type": "string"
        },
        {
          "internalType": "string",
          "name": "_bloodGroup",
          "type": "string"
        },
        {
          "internalType": "uint256",
          "name": "_age",
          "type": "uint256"
        },
        {
          "internalType": "string",
          "name": "_organType",
          "type": "string"
        },
        {
          "internalType": "string",
          "name": "_medicalHistory",
          "type": "string"
        }
      ],
      "name": "registerDonor",
      "outputs": [],
      "stateMutability": "nonpayable",
      "type": "function"
    },
    {
      "inputs": [
        {
          "internalType": "string",
          "name": "_name",
          "type": "string"
        },
        {
          "internalType": "string",
          "name": "_bloodGroup",
          "type": "string"
        },
        {
          "internalType": "uint256",
          "name": "_age",
          "type": "uint256"
        },
        {
          "internalType": "string",
          "name": "_neededOrgan",
          "type": "string"
        },
        {
          "internalType": "string",
          "name": "_medicalHistory",
          "type": "string"
        },
        {
          "internalType": "bool",
          "name": "_isUrgent",
          "type": "bool"
        }
      ],
      "name": "registerRecipient",
      "outputs": [],
      "stateMutability": "nonpayable",
      "type": "function"
    },
    {
      "inputs": [
        {
          "internalType": "address",
          "name": "_donor",
          "type": "address"
        },
        {
          "internalType": "address",
          "name": "_recipient",
          "type": "address"
        }
      ],
      "name": "matchOrgan",
      "outputs": [],
      "stateMutability": "nonpayable",
      "type": "function"
    },
    {
      "inputs": [],
      "name": "getDonorCount",
      "outputs": [
        {
          "internalType": "uint256",
          "name": "",
          "type": "uint256"
        }
      ],
      "stateMutability": "view",
      "type": "function",
      "constant": true
    },
    {
      "inputs": [],
      "name": "getRecipientCount",
      "outputs": [
        {
          "internalType": "uint256",
          "name": "",
          "type": "uint256"
        }
      ],
      "stateMutability": "view",
      "type": "function",
      "constant": true
    }
  ],
  "bytecode": "0x608060405234801561001057600080fd5b50600580546001600160a01b03191633179055611335806100326000396000f3fe608060405234801561001057600080fd5b50600436106100b45760003560e01c80636d40f85b116100715780636d40f85b146101495780638da5cb5b1461015c578063af99b63f1461016f578063ca0cdea814610177578063eb8203121461019e578063f093cf80146101b157600080fd5b80632acd2573146100b95780634fbaa023146100ce578063582a2e52146100e15780635eed3dcb146100f45780636215ae421461012457806369bc2f1e14610137575b600080fd5b6100cc6100c7366004610cfb565b6101d3565b005b6100cc6100dc366004610dd1565b6103eb565b6100cc6100ef366004610e1f565b61057e565b610107610102366004610ed6565b610763565b6040516001600160a01b0390911681526020015b60405180910390f35b6100cc610132366004610eff565b61078d565b6003545b60405190815260200161011b565b610107610157366004610ed6565b610974565b600554610107906001600160a01b031681565b60045461013b565b61018a610185366004610fc5565b610984565b60405161011b98979695949392919061102d565b61018a6101ac366004610fc5565b610bfa565b6101c46101bf366004610fc5565b610c27565b60405161011b939291906110b4565b336000908152600260208190526040909120015460ff166102535760405162461bcd60e51b815260206004820152602f60248201527f4f6e6c7920766572696669656420686f73706974616c732063616e207065726660448201526e37b936903a3434b99030b1ba34b7b760891b60648201526084015b60405180910390fd5b6001600160a01b03821660009081526020819052604090206004015460ff166102b55760405162461bcd60e51b8152602060048201526014602482015273111bdb9bdc881b9bdd081c9959da5cdd195c995960621b604482015260640161024a565b6001600160a01b03811660009081526001602052604090206004015460ff166103205760405162461bcd60e51b815260206004820152601860248201527f526563697069656e74206e6f7420726567697374657265640000000000000000604482015260640161024a565b6001600160a01b03821660009081526020819052604090206007015460ff166103815760405162461bcd60e51b8152602060048201526013602482015272446f6e6f72206e6f7420617661696c61626c6560681b604482015260640161024a565b6001600160a01b038083166000818152602081905260409081902060078101805460ff191690559051928416927ff5a05727e89b33e6cc9fc2ef75709fbff0a01d5be2044c4ba4370d4ace7f8de2916103df91600590910190611124565b60405180910390a35050565b6005546001600160a01b031633146104505760405162461bcd60e51b815260206004820152602260248201527f4f6e6c79206f776e65722063616e20706572666f726d2074686973206163746960448201526137b760f11b606482015260840161024a565b6001600160a01b0382166000908152600260208190526040909120015460ff16156104bd5760405162461bcd60e51b815260206004820152601b60248201527f486f73706974616c20616c726561647920726567697374657265640000000000604482015260640161024a565b604080516060810182526001600160a01b03848116808352602080840186815260018587018190526000938452600290925294909120835181546001600160a01b03191693169290921782559251919290919082019061051d90826111fe565b50604091820151600291909101805460ff1916911515919091179055516001600160a01b038316907f72cefccb74b7edacb21023a72b39a2cecb1123ba70d1eea03d3509d046b941c2906105729084906112be565b60405180910390a25050565b3360009081526020819052604090206004015460ff16156105e15760405162461bcd60e51b815260206004820152601860248201527f446f6e6f7220616c726561647920726567697374657265640000000000000000604482015260640161024a565b60408051610100810182523380825260208083018981528385018990526060840188905260016080850181905260a0850188905260c0850187905260e0850181905260009384529183905293909120825181546001600160a01b0319166001600160a01b0390911617815592519192919082019061065f90826111fe565b506040820151600282019061067490826111fe565b5060608201516003820155608082015160048201805460ff191691151591909117905560a082015160058201906106ab90826111fe565b5060c082015160068201906106c090826111fe565b5060e091909101516007909101805460ff1916911515919091179055600380546001810182556000919091527fc2575a0e9e593c00f959f8c92f12db2869c3395a3b0502d05e2516446f71f85b018054336001600160a01b031990911681179091556040517f7cefa9d45415496742c108166cfd8e4bae2f2089a47b4b375e65d407bdbdace59061075490889086906112d1565b60405180910390a25050505050565b6003818154811061077357600080fd5b6000918252602090912001546001600160a01b0316905081565b3360009081526001602052604090206004015460ff16156107f05760405162461bcd60e51b815260206004820152601c60248201527f526563697069656e7420616c7265616479207265676973746572656400000000604482015260640161024a565b60408051610100810182523380825260208083018a81528385018a90526060840189905260016080850181905260a0850189905260c0850188905286151560e086015260009384529182905293909120825181546001600160a01b0319166001600160a01b0390911617815592519192919082019061086f90826111fe565b506040820151600282019061088490826111fe565b5060608201516003820155608082015160048201805460ff191691151591909117905560a082015160058201906108bb90826111fe565b5060c082015160068201906108d090826111fe565b5060e091909101516007909101805460ff1916911515919091179055600480546001810182556000919091527f8a35acfbc15ff81a39ae7d344fd709f28e8600b4aa8c65c6b64bfe7fe36bd19b018054336001600160a01b031990911681179091556040517f3d6c00385d301f1858baacd01dda41805dc22f9eab6b3c86afd92e8b57c8502b9061096490899087906112d1565b60405180910390a2505050505050565b6004818154811061077357600080fd5b600060208190529081526040902080546001820180546001600160a01b0390921692916109b0906110ea565b80601f01602080910402602001604051908101604052809291908181526020018280546109dc906110ea565b8015610a295780601f106109fe57610100808354040283529160200191610a29565b820191906000526020600020905b815481529060010190602001808311610a0c57829003601f168201915b505050505090806002018054610a3e906110ea565b80601f0160208091040260200160405190810160405280929190818152602001828054610a6a906110ea565b8015610ab75780601f10610a8c57610100808354040283529160200191610ab7565b820191906000526020600020905b815481529060010190602001808311610a9a57829003601f168201915b50505050600383015460048401546005850180549495929460ff909216935090610ae0906110ea565b80601f0160208091040260200160405190810160405280929190818152602001828054610b0c906110ea565b8015610b595780601f10610b2e57610100808354040283529160200191610b59565b820191906000526020600020905b815481529060010190602001808311610b3c57829003601f168201915b505050505090806006018054610b6e906110ea565b80601f0160208091040260200160405190810160405280929190818152602001828054610b9a906110ea565b8015610be75780601f10610bbc57610100808354040283529160200191610be7565b820191906000526020600020905b815481529060010190602001808311610bca57829003601f168201915b5050506007909301549192505060ff1688565b6001602081905260009182526040909120805491810180546001600160a01b03909316926109b0906110ea565b600260205260009081526040902080546001820180546001600160a01b039092169291610c53906110ea565b80601f0160208091040260200160405190810160405280929190818152602001828054610c7f906110ea565b8015610ccc5780601f10610ca157610100808354040283529160200191610ccc565b820191906000526020600020905b815481529060010190602001808311610caf57829003601f168201915b5050506002909301549192505060ff1683565b80356001600160a01b0381168114610cf657600080fd5b919050565b60008060408385031215610d0e57600080fd5b610d1783610cdf565b9150610d2560208401610cdf565b90509250929050565b634e487b7160e01b600052604160045260246000fd5b600082601f830112610d5557600080fd5b813567ffffffffffffffff80821115610d7057610d70610d2e565b604051601f8301601f19908116603f01168101908282118183101715610d9857610d98610d2e565b81604052838152866020858801011115610db157600080fd5b836020870160208301376000602085830101528094505050505092915050565b60008060408385031215610de457600080fd5b610ded83610cdf565b9150602083013567ffffffffffffffff811115610e0957600080fd5b610e1585828601610d44565b9150509250929050565b600080600080600060a08688031215610e3757600080fd5b853567ffffffffffffffff80821115610e4f57600080fd5b610e5b89838a01610d44565b96506020880135915080821115610e7157600080fd5b610e7d89838a01610d44565b9550604088013594506060880135915080821115610e9a57600080fd5b610ea689838a01610d44565b93506080880135915080821115610ebc57600080fd5b50610ec988828901610d44565b9150509295509295909350565b600060208284031215610ee857600080fd5b5035919050565b80358015158114610cf657600080fd5b60008060008060008060c08789031215610f1857600080fd5b863567ffffffffffffffff80821115610f3057600080fd5b610f3c8a838b01610d44565b97506020890135915080821115610f5257600080fd5b610f5e8a838b01610d44565b9650604089013595506060890135915080821115610f7b57600080fd5b610f878a838b01610d44565b94506080890135915080821115610f9d57600080fd5b50610faa89828a01610d44565b925050610fb960a08801610eef565b90509295509295509295565b600060208284031215610fd757600080fd5b610fe082610cdf565b9392505050565b6000815180845260005b8181101561100d57602081850181015186830182015201610ff1565b506000602082860101526020601f19601f83011685010191505092915050565b6001600160a01b0389168152610100602082018190526000906110528382018b610fe7565b90508281036040840152611066818a610fe7565b9050876060840152861515608084015282810360a08401526110888187610fe7565b905082810360c084015261109c8186610fe7565b91505082151560e08301529998505050505050505050565b6001600160a01b03841681526060602082018190526000906110d890830185610fe7565b90508215156040830152949350505050565b600181811c908216806110fe57607f821691505b60208210810361111e57634e487b7160e01b600052602260045260246000fd5b50919050565b6000602080835260008454611138816110ea565b808487015260406001808416600081146111595760018114611173576111a1565b60ff1985168984015283151560051b8901830195506111a1565b896000528660002060005b858110156111995781548b820186015290830190880161117e565b8a0184019650505b509398975050505050505050565b601f8211156111f957600081815260208120601f850160051c810160208610156111d65750805b601f850160051c820191505b818110156111f5578281556001016111e2565b5050505b505050565b815167ffffffffffffffff81111561121857611218610d2e565b61122c8161122684546110ea565b846111af565b602080601f83116001811461126157600084156112495750858301515b600019600386901b1c1916600185901b1785556111f5565b600085815260208120601f198616915b8281101561129057888601518255948401946001909101908401611271565b50858210156112ae5787850151600019600388901b60f8161c191681555b5050505050600190811b01905550565b602081526000610fe06020830184610fe7565b6040815260006112e46040830185610fe7565b82810360208401526112f68185610fe7565b9594505050505056fea26469706673582212201191d0de1787608337299539b3dcad8fdbb7dfb43c9d7b9d2592b8356f55c65964736f6c63430008130033",
  "immutableReferences": {},
  "source": "// SPDX-License-Identifier: MIT\npragma solidity ^0.8.19;\n\ncontract OrganDonation {\n    struct Donor {\n        address donorAddress;\n        string name;\n        string bloodGroup;\n        uint age;\n        bool isRegistered;\n        string organType;\n        string medicalHistory;\n        bool isAvailable;\n    }\n\n    struct Recipient {\n        address recipientAddress;\n        string name;\n        string bloodGroup;\n        uint age;\n        bool isRegistered;\n        string neededOrgan;\n        string medicalHistory;\n        bool isUrgent;\n    }\n\n    struct Hospital {\n        address hospitalAddress;\n        string name;\n        bool isVerified;\n    }\n\n    mapping(address => Donor) public donors;\n    mapping(address => Recipient) public recipients;\n    mapping(address => Hospital) public hospitals;\n    address[] public donorList;\n    address[] public recipientList;\n    address public owner;\n\n    event DonorRegistered(address indexed donor, string name, string organType);\n    event RecipientRegistered(address indexed recipient, string name, string neededOrgan);\n    event HospitalRegistered(address indexed hospital, string name);\n    event OrganMatched(address indexed donor, address indexed recipient, string organType);\n\n    constructor() {\n        owner = msg.sender;\n    }\n\n    modifier onlyOwner() {\n        require(msg.sender == owner, \"Only owner can perform this action\");\n        _;\n    }\n\n    modifier onlyHospital() {\n        require(hospitals[msg.sender].isVerified, \"Only verified hospitals can perform this action\");\n        _;\n    }\n\n    function registerHospital(address _hospitalAddress, string memory _name) public onlyOwner {\n        require(!hospitals[_hospitalAddress].isVerified, \"Hospital already registered\");\n        hospitals[_hospitalAddress] = Hospital(_hospitalAddress, _name, true);\n        emit HospitalRegistered(_hospitalAddress, _name);\n    }\n\n    function registerDonor(\n        string memory _name,\n        string memory _bloodGroup,\n        uint _age,\n        string memory _organType,\n        string memory _medicalHistory\n    ) public {\n        require(!donors[msg.sender].isRegistered, \"Donor already registered\");\n        donors[msg.sender] = Donor(\n            msg.sender,\n            _name,\n            _bloodGroup,\n            _age,\n            true,\n            _organType,\n            _medicalHistory,\n            true\n        );\n        donorList.push(msg.sender);\n        emit DonorRegistered(msg.sender, _name, _organType);\n    }\n\n    function registerRecipient(\n        string memory _name,\n        string memory _bloodGroup,\n        uint _age,\n        string memory _neededOrgan,\n        string memory _medicalHistory,\n        bool _isUrgent\n    ) public {\n        require(!recipients[msg.sender].isRegistered, \"Recipient already registered\");\n        recipients[msg.sender] = Recipient(\n            msg.sender,\n            _name,\n            _bloodGroup,\n            _age,\n            true,\n            _neededOrgan,\n            _medicalHistory,\n            _isUrgent\n        );\n        recipientList.push(msg.sender);\n        emit RecipientRegistered(msg.sender, _name, _neededOrgan);\n    }\n\n    function matchOrgan(address _donor, address _recipient) public onlyHospital {\n        require(donors[_donor].isRegistered, \"Donor not registered\");\n        require(recipients[_recipient].isRegistered, \"Recipient not registered\");\n        require(donors[_donor].isAvailable, \"Donor not available\");\n        \n        donors[_donor].isAvailable = false;\n        emit OrganMatched(_donor, _recipient, donors[_donor].organType);\n    }\n\n    function getDonorCount() public view returns (uint) {\n        return donorList.length;\n    }\n\n    function getRecipientCount() public view returns (uint) {\n        return recipientList.length;\n    }\n}\n",
  "sourcePath": "D:\\virendra project\\TEC_ORgan_Dlt\\contracts\\OrganDonation.sol",
  "compiler": {
    "name": "solc",
    "version": "0.8.19+commit.7dd6d404.Emscripten.clang"
  },
  "schemaVersion": "3.4.16",
  "updatedAt": "2025-03-28T11:18:30.209Z",
  "networkType": "ethereum",
  "devdoc": {
    "kind": "dev",
    "methods": {},
    "version": 1
  },
  "userdoc": {
    "kind": "user",
    "methods": {},
    "version": 1
  }
}